:020000040000FA
:10000000A0080020F9000000130100001501000005
:1000100000000000000000000000000000000000E0
:1000200000000000000000000000000017010000B8
:100030000000000000000000190100001B0100008A
:100040001D0100001D0100001D0100001D01000038
:100050001D010000000000001D0100001D01000046
:100060001D0100001D0100001D0100001D01000018
:100070001D0100001D0100001D0100001D01000008
:100080001D0100001D0100001D0100001D010000F8
:100090001D0100001D0100001D0100001D010000E8
:1000A0001D0100001D010000000000000000000014
:1000B0000000000000000000000000000000000040
:1000C0000448854600F056F800F044F80048004720
:1000D00059050000A0080020401E00BF00BF00BF5F
:1000E00000BF00BF00BF00BF00BF00BF00BF00BF18
:1000F00000BFF1D1704700000321094802680A439C
:100100000260084802680A430260074880470748BF
:100110000047FEE7FEE7FEE7FEE7FEE7FEE700003A
:1001200024050040540500407D030000C10000008C
:10013000D2B201E00270401C491EFBD2704700227F
:10014000F6E710B513460A4604461946FFF7F0FFD6
:10015000204610BD70B5054C054D03E02068001920
:100160008047241DAC42F9D170BD0000500600004C
:1001700054060000064C0125064E05E0E36807CC56
:100180002B430C3C98471034B442F7D3FFF79CFF45
:100190003006000050060000054B82000349D218CB
:1001A0001161044AFF21115470470000001F030031
:1001B000006500400C000020F8B5484A002191700D
:1001C000961D33784649FF250124834222D1D01C55
:1001D00000780B688200374616379446BF5C22468B
:1001E000BA4093430B600B68374662461637D21904
:1001F0009646927827469740BB430B60314662464D
:1002000016318D52724655803570FFF7C5FFF01ECE
:1002100005704EE07378834224D130480F68C01CCB
:1002200040782E4A83009C461C32D35C22469A407A
:1002300097430F600A68294F63461C37DB199E46B7
:100240009B7827469F40BA430A60244A61461C3285
:10025000555273465D807570FFF79EFF1F48C01CA6
:10026000457026E0B378834223D11C480F68C01C38
:1002700080781A4B82001C3394469B5C22469A403D
:1002800097430F600F68154B62461C33D218964691
:100290009278234693409F430F60104962461C3179
:1002A0008D5272465580B570FFF776FF0B48C01C23
:1002B00085703078FF2810D17078FF280DD1B07884
:1002C000FF280AD107484460074900208860481584
:1002D00006490860092000F07BF8F8BD0000002006
:1002E00000F50140009000400093004080E100E0F4
:1002F000014600B5FF200B0000F0C4F8190E1012E3
:100300001416181A1C1E20222426282A2C2E3032BD
:100310003436383A3C3E0F000B2000BD092000BDAA
:100320000A2000BD082000BD152000BD172000BD1B
:10033000102000BD112000BD132000BD122000BD03
:100340000E2000BD0C2000BD0D2000BD0F2000BD03
:100350001D2000BD1C2000BD192000BD162000BDC1
:10036000142000BD012000BD022000BD032000BDFF
:10037000042000BD052000BD062000BD10B500F022
:1003800037F8002805D00E490C484860C8130D49BD
:1003900088610D48018CC9B201290ED1818C0907F1
:1003A0000BD1018D0906090F042906D1808D0006A5
:1003B000000F02D105490120886010BDDFFF07C092
:1003C00000050040006C0040C00F00F00006004037
:1003D0007047000031B5054C04E0401E00902046F7
:1003E000FFF77AFE00980028F7D138BDE703000038
:1003F0001048018CC9B2012917D1818C090714D189
:10040000018D09060A0F03D1828D1206120F0ED03C
:10041000090F012903D1828D1206120F07D003297B
:1004200003D1808D0006000F01D00020704701200D
:1004300070470000C00F00F070B505460024002D85
:1004400001D0012100E00021204600F047F8641CA3
:100450001F2CF4DB70BD10B504464021FFF76FFE82
:10046000002020646064204610BD0000002242602D
:100470007D22D2008260024A026001617047000062
:100480001806000030B47446641E2578641CAB4224
:1004900000D21D46635D5B00E31830BC184702E0E4
:1004A00008C8121F08C1002AFAD1704770470020FF
:1004B00001E001C1121F002AFBD1704710B50448AA
:1004C000FFF7C9FF024908464830FFF7CFFF10BDCC
:1004D0003C00002010B5FFF77DFF10BD70B50D4644
:1004E000FFF706FF04461F2807D2FFF765FE01202D
:1004F0000449002D02D0A040886070BDA040C860B3
:1005000070BD00000005005000B500F003F800BD0C
:1005100070470000064801228261064800214160C0
:1005200083059A604268002AFCD041607047000051
:10053000000500400001004010B50120FFF77CFFDE
:10054000FF24F5342046FFF7C5FF0020FFF774FFB6
:100550002046FFF7BFFF10BD10B5FFF7D5FFFFF72F
:10056000D7FF0120FFF7B6FF00F048F8034CFFF774
:10057000E3FF002CFBD0C046C046F8E700000000B7
:1005800070B50C46FFF7B4FE1F2810D20021144AA4
:10059000144D2300FFF776FF0D08100E080C1416FB
:1005A00019101B1D1F210B0080008018016070BDF9
:1005B0000421F9E70C21F7E780008018056070BD81
:1005C0000121F1E7FF210231EEE70749ECE7074996
:1005D000EAE70749E8E70749E6E70749E4E70000F3
:1005E00000070050010300000102000001040000A8
:1005F00001050000010600000107000010B50024FD
:1006000001212046FFF7BCFF641C1F2CF8DB10BD46
:1006100000000000000000000000000000000000DA
:1006200000000000000000000000000000000000CA
:1006300054060000000000203C0000009E04000062
:10064000900600003C00002064080000AE0400009A
:100650006DFEFFFF0A0800FFFFFFFFFFFF00000025
:10066000FFFFFFFF00000000030000000200000089
:10067000FF00FF00FF00FF00FF00FF00FF00FF0082
:100680001100000011000000110000000024F4001F
:04000005000000C136
:00000001FF
